S023000069656C6574323131315F756172745F696E636C7564655F64656D6F2E73726563C7
S11300000C947A000C9499000C9499000C94990027
S11300100C9499000C9499000C9499000C949900F8
S11300200C9499000C9499000C9499000C949900E8
S11300300C9499000C9499000C9499000C949900D8
S11300400C9499000C9499000C9499000C949900C8
S11300500C9499000C9499000C9499000C949900B8
S11300600C9499000C9499000C9499000C949900A8
S11300700C9499000C9499000C9499000C94990098
S11300800C9499000C9499000C9499000C94990088
S11300900C9499000C9499000C9499000C94990078
S11300A00C9499000C9499000C9499000C94990068
S11300B00C9499000C9499000C9499000C94990058
S11300C00C9499000C9499000C9499000C94990048
S11300D00C9499000C9499000C9499000C94990038
S11300E00C9499000C9499000C9499000C94990028
S11300F00C94990011241FBECFEFCDBFDFE7DEBF04
S113010010E4A0E0B0E4EEEAF7E000E00BBF02C0C8
S113011007900D92AA33B107D9F720E4AAE3B0E41B
S113012001C01D92A034B207E1F70E949B000C9419
S1130130D5030C9400000E94BB00C0E08EE090E464
S11301400E94F100D1E0DC0F1F92CF9382E290E491
S11301509F938F930E94DD002FE78AE196E0215060
S113016080409040E1F700C000000F900F900F9086
S11301700F90CD2FE3CFE0E2F4E081E0818382E0D1
S11301808283E0E6F8E083E896E0808791878681C1
S11301908064868380E090E480933C4090933D406B
S11301A008959091640895FFFCCF809362080895A8
S11301B00E94D10080E090E00895CF93DF93CDB703
S11301C0DEB7AE014B5F5F4FFA0161917191AF01F0
S11301D080913C4090913D400E942101DF91CF915C
S11301E008950F931F93CF93DF93E0913C40F091D8
S11301F03D40238121FF1BC08C01D0E0C0E0F80109
S113020081918F0160913C4070913D40DB011896D3
S1130210ED91FC911997882331F00995892B79F395
S1130220DFEFCFEFECCF8AE00995892B19F08FEF40
S11302309FEF02C08D2F9C2FDF91CF911F910F91C3
S113024008952F923F924F925F926F927F928F9276
S11302509F92AF92BF92CF92DF92EF92FF920F9351
S11302601F93CF93DF93CDB7DEB72B97CDBFDEBF00
S11302706C017B018A01FC0116821782838181FF54
S1130280CCC1CE0101963C01F6019381F70193FDA7
S1130290859193FF81917F01882309F4BAC1853246
S11302A039F493FD859193FF81917F01853229F47F
S11302B0B60190E00E943B03E7CF912C212C312C16
S11302C0FFE1F315D8F08B3279F038F4803279F00D
S11302D08332A1F4232D20611DC08D3261F080335F
S11302E069F4232D216016C0832D8260382EE32DFE
S11302F0E4603E2E2AC0F32DF8601DC037FC2DC0EB
S113030020ED280F2A3040F08E32B9F436FC81C13A
S1130310232D2064322E19C036FE06C08AE0989E32
S1130320200D1124922E11C0EAE02E9E200D1124DE
S1130330222EF32DF0623F2E08C08C3621F4832D3B
S11303408068382E02C0883641F4F70193FD859108
S113035093FF81917F018111B3CF982F9F7D955495
S1130360933028F40C5F1F4F9FE399830DC08336AD
S113037031F0833771F0833509F059C021C0F80199
S1130380808189830E5F1F4F88248394912C5301AD
S113039013C02801F2E04F0E511CF801A080B18077
S11303A036FE03C0692D70E002C06FEF7FEFC50118
S11303B00E9430034C018201F32DFF773F2E16C0BB
S11303C0280122E0420E511CF801A080B18036FEC3
S11303D003C0692D70E002C06FEF7FEFC5010E947A
S11303E025034C01F32DF0683F2E820133FC1BC022
S11303F0822D90E088169906B0F4B60180E290E070
S11304000E943B032A94F4CFF50137FC859137FE13
S113041081915F01B60190E00E943B0321102A9470
S113042021E0821A91088114910471F7E8C084369E
S113043011F0893641F5F80137FE07C060817181FA
S1130440828193810C5F1F4F08C060817181072EE8
S1130450000C880B990B0E5F1F4FF32DFF763F2E78
S113046097FF09C090958095709561957F4F8F4F48
S11304709F4FF0683F2E2AE030E0A3010E947703EB
S1130480882E861845C0853731F4232D2F7EB22E51
S11304902AE030E025C0932D997FB92E8F36C1F024
S11304A018F4883579F0B5C0803719F0883721F011
S11304B0B0C0E92FE061BE2EB4FE0DC0FB2DF46088
S11304C0BF2E09C034FE0AC0292F2660B22E06C0F2
S11304D028E030E005C020E130E002C020E132E055
S11304E0F801B7FE07C060817181828193810C5F3E
S11304F01F4F06C06081718180E090E00E5F1F4F46
S1130500A3010E947703882E8618FB2DFF773F2EC8
S113051036FE0DC0232D2E7FA22E891458F434FEEE
S11305200BC032FC09C0832D8E7EA82E05C0B82CCA
S1130530A32C03C0B82C01C0B92CA4FE0FC0FE012B
S1130540E80DF11D8081803321F49A2D997EA92E26
S113055009C0A2FE06C0B394B39404C08A2D867861
S113056009F0B394A3FC11C0A0FE06C0B21488F431
S1130570280C922C9B180EC0B21460F4B60180E2D1
S113058090E00E943B03B394F7CFB21418F42B18F5
S113059002C0982C212CA4FE10C0B60180E390E088
S11305A00E943B03A2FE17C0A1FC03C088E790E0B1
S11305B002C088E590E0B6010CC08A2D867859F017
S11305C0A1FE02C08BE201C080E2A7FC8DE2B6016D
S11305D090E00E943B03891438F4B60180E390E074
S11305E00E943B039A94F7CF8A94F301E80DF11D1E
S11305F08081B60190E00E943B038110F5CF222058
S113060009F442CEB60180E290E00E943B032A94B2
S1130610F6CFF6018681978102C08FEF9FEF2B966C
S1130620CDBFDEBFDF91CF911F910F91FF90EF906F
S1130630DF90CF90BF90AF909F908F907F906F90FE
S11306405F904F903F902F900895FC01059061506A
S113065070400110D8F7809590958E0F9F1F0895D4
S1130660FC016150704001900110D8F7809590957D
S11306708E0F9F1F08950F931F93CF93DF93FB015A
S1130680238121FD03C08FEF9FEF2CC022FF16C0F2
S113069046815781248135814217530744F4A08150
S11306A0B1819D012F5F3F4F208331838C9326813D
S11306B037812F5F3F4F2683378314C08B01EC01B2
S11306C0FB010084F185E02D0995892BE1F6D80121
S11306D016968D919C911797019616968D939C93DF
S11306E01797CE01DF91CF911F910F910895FA01D1
S11306F0AA27283051F1203181F1E8946F936E7F5D
S11307006E5F7F4F8F4F9F4FAF4FB1E03ED0B4E04D
S11307103CD0670F781F891F9A1FA11D680F791F8E
S11307208A1F911DA11D6A0F711D811D911DA11D9F
S113073020D009F468943F912AE0269F11243019AF
S1130740305D3193DEF6CF010895462F4770405D4A
S11307504193B3E00FD0C9F7F6CF462F4F70405DF9
S11307604A3318F0495D31FD4052419302D0A9F754
S1130770EACFB4E0A6959795879577956795BA954E
S1130780C9F700976105710508959B01AC010A2E14
S113079006945795479537952795BA95C9F7620FEB
S11107A0731F841F951FA01D0895F894FFCFAA
S11307AE0000000200000000D80000000000426FAC
S11307BE72696E672076616C75652069733A2031B3
S11307CE0D00436F756E7465722076616C756520CD
S10D07DE69733A2025640D0A000037
S9030000FC
