S01F000069656C6574323131315F66756E6374696F6E5F64656D6F2E7372656364
S11300000C947A000C9484000C9484000C94840066
S11300100C9484000C9484000C9484000C9484004C
S11300200C9484000C9484000C9484000C9484003C
S11300300C9484000C9484000C9484000C9484002C
S11300400C9484000C9484000C9484000C9484001C
S11300500C9484000C9484000C9484000C9484000C
S11300600C9484000C9484000C9484000C948400FC
S11300700C9484000C9484000C9484000C948400EC
S11300800C9484000C9484000C9484000C948400DC
S11300900C9484000C9484000C9484000C948400CC
S11300A00C9484000C9484000C9484000C948400BC
S11300B00C9484000C9484000C9484000C948400AC
S11300C00C9484000C9484000C9484000C9484009C
S11300D00C9484000C9484000C9484000C9484008C
S11300E00C9484000C9484000C9484000C9484007C
S11300F00C94840011241FBECFEFCDBFDFE7DEBF19
S11301000E94AC000C94CA000C94000021E030E082
S1130110A901082E02C0440F551F0A94E2F7019664
S113012002C0220F331F8A95E2F7242B2093850403
S1130130089521E030E0A901082E02C0440F551FA4
S11301400A94E2F7019602C0220F331F8A95E2F760
S1130150242B20938604089587E08093800480E014
S113016090E00E9486002FE788E391E021508040D0
S11301709040E1F700C0000080E090E00E94990008
S11301802FE788E391E0215080409040E1F700C0E0
S10B01900000E5CFF894FFCF55
S9030000FC
